:1076ED008F14D3E514648094894008E5142437FF82
:0C76FD0002776AE5142430FF12776A223D
:0276B3008F1234
:1076B500E5127804A2E713D8FB540FF513FF1276F1
:0B76C500EDE512540FF513FF0276ED07
:05780C007F5B02776ABA
:057811007F5D02776AB3
:10758B0012780CE4F511E51190780693FF12776AE7
:10759B000511E511C3940640ED7F021276ED7F5F76
:1075AB0012776A7F041276ED7F5F12776A7F011282
:1075BB0076ED907C00E0FF1276B3907C01E0FF1239
:0575CB0076B302781107
:0777F800907DC67401F02230
:03781B00027400F4
:107537001277F8C20112768DD290C296C2001277E6
:10754700C38F10E51024DA601F24A86032245B7013
:10755700EDAF1012776AC29012781B900001E0FE1F
:10756700A3E0FF1277FF80D6AF1012776AD2B4126A
:10757700781B900001E0FEA3E0FF1277FF80BF12A7
:04758700758B80BAC6
:0B77CF005390F3EF25E025E0429022EC
:10740000E4F511F512F513AF131277CFD201E5139E
:10741000640370030274E030021D127635400512D9
:10742000778A80F6AE11AF12AD07AC06AB1A7F0AB1
:107430007E7F1276D0801612772250FBAE11AF12EB
:10744000AD07AC06AB1A7F077E7F1276D0E51A2512
:1074500012F512E43511F511E4F51AE5131460077D
:10746000146066240270A7E5127004E5116474705C
:1074700040E5127004E511648060933002151276C5
:1074800035400512778A80F6AD1A7F0A7E7F127624
:10749000E5800E12772250FBAD1A7F077E7F1276B1
:1074A000E5E51A2512F512E43511F511E4F51A8017
:1074B000C0E5124511600302740E751180F51205C6
:1074C00013AF131277CF02740EE5127004E5116446
:1074D000C0600302740E7F2E12776A051302740EC9
:0174E0002289
:05781600427BFE00F3BF
:0A77E500907F04EFF0A3F0A3F02260
:10768D00C202E4F51A1277101277F87F011277E52E
:10769D001277B55003D202227F021277E512779945
:0676AD0050E61274E12218
:0F777B00907F00EFF0A3EDF0A37401F0E4F02293
:1074E1007DC17F0712777B12775950FBE4F51112AA
:1074F10077590511E511C3942040F4907BFEE0FD1E
:10750100E4FF12777B907BFFE0FD0F12777BE4FDB8
:107511007F0412777B7D287F0612777B7DE30F1234
:10752100777B7D407F0B12777B7D607F0D12777BB0
:067531007D201F02777BA4
:10774800907F00EFF0907F027402F0907F01E0FFDD
:01775800220E
:0E7799007F0A127748EF20E003D38001C3225D
:0977EF0012779950031277F82279
:107722001277EF907F247404F0E030E205751A407E
:04773200D322C32279
:107759001277EF7F09127748EF30E203D38001C334
:0177690022FD
:0E77A7008F1512775950FB907F07E515F022E1
:107603001277EFE51A70271277225008751A401582
:107613001AD32222907F24E0FFEF5408FFEFF0906B
:107623007F24E0FFEF30E303C32222D32222151A83
:02763300D32260
:0B77DA0012760350FB907F07E0FF22B7
:0E77B500907F22E0FFEF30E703D38001C32274
:0F778A00907F227480F01277B550031277F822A7
:10763500E51A7028907F23E0FFEF30E11C907F234F
:10764500E0FFEF5402FFEFF0907F0FE0FF8F1AE5A8
:0E7655001A7003C32222D32222C32222D32280
:1075D0008F18907F20E0FFEF30E40B907F20741035
:1075E000F012778A80EC907F09E518F0907F0DE02B
:1075F000FFEF4402FFEFF0907F0DE0FFEF54FDFF3F
:03760000EFF02286
:10773600127635400512778A80F6151A907F0AE090
:02774600FF2220
:0C77C30030020512773622221277DA22FB
:10776A008F19200206AF191277A722AF191275D006
:01777A0022EC
:0300000002766322
:10766300D2900000758120907816127689F81276F0
:1076730089F9127689FA127689FB88838982EAF07E
:0A768300A3EBF0027537E4A3932295
:10770900F0A308B805FA22E4F8907F20141277094B
:09771900E4907F25F812770922A3
:0777FF00E48F828E837322E8
:1076D0008E838F828C858D84758600E00586F0A36D
:0D76E0000586DBF7228E838F82E0DDFD2220
:067806004242544D445FB4
:00000001FF
